:020000040800F2
:1000000000000220FD380008CB280008CD28000899
:10001000CF280008D1280008D328000800000000DD
:10002000000000000000000000000000810D00083A
:10003000D528000800000000210E00085D06000819
:100040004D3900084D3900084D3900084D39000878
:100050004D3900084D3900084D3900084D39000868
:100060004D3900084D3900084D3900084D39000858
:100070004D3900084D3900084D3900084D39000848
:100080004D3900084D3900084D3900084D39000838
:100090004D3900084D3900084D3900084D39000828
:1000A0004D390008D92800084D3900084D3900089D
:1000B0004D3900084D3900084D3900084D39000808
:1000C0004D3900084D3900084D3900084D390008F8
:1000D0004D3900084D3900084D3900084D390008E8
:1000E0004D3900084D3900084D3900084D390008D8
:1000F0004D3900084D3900084D3900084D390008C8
:100100004D3900084D3900084D3900084D390008B7
:100110004D3900084D3900084D3900084D390008A7
:100120004D3900084D3900084D3900084D39000897
:100130004D39000800000000000000004D390008A3
:100140004D3900084D3900084D3900084D39000877
:100150004D3900084D3900084D3900084D39000867
:100160004D3900084D3900084D3900084D39000857
:100170004D3900084D3900084D39000800000000D5
:10018000000000004D3900080000000000000000E1
:100190004D39000800000000000000004D39000843
:1001A0000000000000000000000000004D390008C1
:1001B0004D3900084D3900084D3900084D39000807
:0401C0004D390008AD
:1001D00001F0FF01102A2BDB10F0070F08D010F8F8
:1001E000013B013A8B422DD010F0070F42B3F6D1FC
:1001F000F0B441EA012141EA014122F007047FF015
:1002000000070023F0E80256083C85EA010586EA6B
:10021000010685FA47F5A3FA87F586FA47F6A5FAA7
:1002200087F68EB9EED1F0BC01F0FF0102F00702B3
:1002300032B110F8013B013A83EA010313B1F8D15E
:100240000020704701387047002D06BF354603383F
:10025000073815F0010F07D1013015F4807F02BF78
:10026000013015F4C03F0130F0BC0138704700BFC9
:1002700081F0004102E000BF83F0004330B54FEA57
:1002800041044FEA430594EA050F08BF90EA020FC4
:100290001FBF54EA000C55EA020C7FEA645C7FEA57
:1002A000655C00F0E2804FEA5454D4EB5555B8BF7A
:1002B0006D420CDD2C4480EA020281EA030382EAEB
:1002C000000083EA010180EA020281EA0303362D7D
:1002D00088BF30BD11F0004F4FEA01314FF4801C50
:1002E0004CEA113102D0404261EB410113F0004F62
:1002F0004FEA03334CEA133302D0524263EB430319
:1003000094EA050F00F0A780A4F10104D5F1200EB6
:100310000DDB02FA0EFC22FA05F2801841F1000111
:1003200003FA0EF2801843FA05F359410EE0A5F1E5
:1003300020050EF1200E012A03FA0EFC28BF4CF016
:10034000020C43FA05F3C01851EBE37101F00045CC
:1003500007D54FF0000EDCF1000C7EEB00006EEBD9
:100360000101B1F5801F1BD3B1F5001F0CD3490863
:100370005FEA30004FEA3C0C04F101044FEA4452BA
:1003800012F5800F80F09A80BCF1004F08BF5FEA41
:10039000500C50F1000041EB045141EA050130BD21
:1003A0005FEA4C0C404141EB0101013C28BFB1F533
:1003B000801FE9D291F0000F04BF01460020B1FA7E
:1003C00081F308BF2033A3F10B03B3F120020CDA51
:1003D0000C3208DD02F1140CC2F10C0201FA0CF02F
:1003E00021FA02F10CE002F11402D8BFC2F1200C94
:1003F00001FA02F120FA0CFCDCBF41EA0C0190404A
:10040000E41AA2BF01EB0451294330BD6FEA040492
:100410001F3C1CDA0C340EDC04F11404C4F120027D
:1004200020FA04F001FA02F340EA030021FA04F38F
:1004300045EA030130BDC4F10C04C4F1200220FAE6
:1004400002F001FA04F340EA0300294630BD21FA24
:1004500004F0294630BD94F0000F83F4801306BFEA
:1004600081F480110134013D4EE77FEA645C18BFDE
:100470007FEA655C29D094EA050F08BF90EA020F75
:1004800005D054EA000C04BF1946104630BD91EA6D
:10049000030F1EBF0021002030BD5FEA545C05D170
:1004A0004000494128BF41F0004130BD14F58004AF
:1004B0003CBF01F5801130BD01F0004545F0FE4123
:1004C00041F470014FF0000030BD7FEA645C1ABF58
:1004D000194610467FEA655C1CBF0B46024650EA8F
:1004E000013406BF52EA033591EA030F41F40021BB
:1004F00030BD00BF90F0000F04BF0021704730B541
:100500004FF4806404F132044FF000054FF0000115
:1005100050E700BF90F0000F04BF0021704730B5D6
:100520004FF4806404F1320410F0004548BF4042AB
:100530004FF000013EE700BF42004FEAE2014FEA00
:1005400031014FEA02701FBF12F07F4393F07F4FDB
:1005500081F06051704732F07F4208BF704793F0DE
:100560007F4F04BF41F40021704730B54FF46074F1
:1005700001F0004521F000411CE700BF50EA0102F4
:1005800008BF704730B54FF000050AE050EA01029D
:1005900008BF704730B511F0004502D5404261EB0D
:1005A00041014FF4806404F132045FEA915C3FF44E
:1005B000D8AE4FF003025FEADC0C18BF03325FEAEB
:1005C000DC0C18BF033202EBDC02C2F1200300FA9C
:1005D00003FC20FA02F001FA03FE40EA0E0021FAC1
:1005E00002F11444BDE600BF53B94AB9002908BF5F
:1005F00000281CBF4FF0FF314FF0FF3000F00CB867
:10060000ADF1080C6DE904CE04F096F9DDF804E0D4
:10061000DDE9022304B07047704700BF10B5054CF8
:10062000237833B9044B13B10448AFF3008001239E
:10063000237010BD7000002000000000304C000846
:1006400008B5034B1BB103490348AFF3008008BD55
:100650000000000074000020304C000808B54FF086
:10066000E0231B6902F0C8FE012800D108BD00F09C
:1006700009FCFBE7EFF305832BB9064B186828B993
:1006800001221A6070476FF0050070474FF0FF308D
:10069000704700BFD0090020EFF3058373B90A4B00
:1006A0001B68012B0DD110B50024084BDC77064BDD
:1006B00002221A6002F09AFB204610BD6FF005007E
:1006C00070474FF0FF307047D009002000ED00E088
:1006D000F0B587B000240594EFF305840CBB00B39C
:1006E000002A35D0156893692BB11E46013B372B84
:1006F00002D9002016E01826536813F0010F40D1EC
:1007000054698CB14FEA940C936833B1D768B7F54C
:10071000D07F02D3176907B184B943B14FF0FF33DB
:100720000BB3059807B0F0BD4FF0800CECE7D36831
:10073000A3B91369ABB14FF0FF33F1E7029301970F
:1007400000960B466246294602F0E0FA0590E8E77B
:100750001546002318264FF0800CE1E74FF0FF33D9
:10076000DEE70023DCE705AB019300960B461FFA9A
:100770008CF2294602F007FB0128D2D00023059312
:10078000CFE70020CEE708B5EFF3058333B908B90A
:10079000002008BD02F0E8FC0020FAE76FF0050039
:1007A000F7E70000034B0360034B0B6080231360EB
:1007B000704700BF3008002030060020034B036064
:1007C000034B0B604FF4807313607047900400205C
:1007D0008C000020124A12F0070F1ED0D11D21F00C
:1007E0000701C1F5705313440A460E480260002108
:1007F00041601344083B23F007030B480360596032
:100800001960991A51601360084B1960084B196000
:10081000084B4FF000421A6070474FF47053E4E702
:10082000F4090020EC090020E8090020E00900207C
:10083000E4090020D4090020164B1A461B688342A5
:10084000FBD3516802EB010C844509D0416800EBF1
:10085000010C634509D00360904219D010607047C5
:100860004068014451601046F0E710B40A4C246817
:10087000A3420BD05B681944416013681B68036096
:10088000904200D010605DF8044B70470460F7E7B9
:10089000704700BFEC090020E809002038B5044685
:1008A00002F0FAFA384B1B68B3B1384B1B681C4294
:1008B00050D1002C50D004F1080214F0070F02D0E0
:1008C00022F007020832002A55D0314B1B689342B0
:1008D00053D330490C6804E0FFF77CFFE5E721467D
:1008E0001C466368934202D22368002BF7D1264B43
:1008F0001B68A34243D00D68083523680B6063680A
:100900009B1A102B10D9A01810F0070F08D04FF029
:10091000500383F31188BFF36F8FBFF34F8FFEE750
:1009200043606260FFF788FF626819490B689B1A91
:100930000B60194909688B4201D217490B60134BB0
:100940001B681343636000232360144A1368013358
:10095000136002E0002500E0002502F037FB15F0EF
:10096000070F0ED04FF0500383F31188BFF36F8F42
:10097000BFF34F8FFEE70025EFE70025EDE70025E9
:10098000EBE7284638BD00BFE8090020D409002065
:10099000E4090020EC090020E0090020DC09002027
:1009A000002834D038B50446A0F1080550F8043CBE
:1009B000174A1268134208D14FF0500383F311888D
:1009C000BFF36F8FBFF34F8FFEE750F8081C41B1A4
:1009D0004FF0500383F31188BFF36F8FBFF34F8F36
:1009E000FEE723EA020340F8043C02F055FA54F80B
:1009F000041C084A13680B4413602846FFF71CFFC9
:100A0000054A13680133136002F0E0FA38BD7047FD
:100A1000D4090020E4090020D809002000F10803CF
:100A200043604FF0FF328260C360036100230360C4
:100A3000704700230361704743684B609A688A607F
:100A4000516099600861036801330360704730B4F6
:100A50000D68B5F1FF3F11D000F108031C465B683B
:100A60001A68AA42FAD963684B6099608C60616029
:100A7000086103680133036030BC70470469F2E722
:100A80000369416882688A60416851605A6882429D
:100A900006D0002202611A68013A1A60186870478D
:100AA00082685A60F5E7000070B58AB005AD002491
:100AB000059406940794089409940194224B1A6BA8
:100AC00042F004021A631A6B02F004020192019AC6
:100AD00002941A6B42F080021A631A6B02F08002D1
:100AE0000292029A03941A6B42F001021A631A6B83
:100AF00002F001020392039A04941A6B42F002027C
:100B00001A631B6B03F002030493049B0F4E2246EF
:100B10002021304601F002F84FF4005305934FF4C2
:100B20000413069307942946094800F007FF202381
:100B3000059301230693079408942946304600F054
:100B4000FDFE0AB070BD00BF003802400000024048
:100B50000008024008B50120FFF715FEFBE7000082
:100B600008B50268034B9A4200D008BD00F070FE41
:100B7000FBE700BF0000014072B6FEE708B50A4877
:100B80000A4B03604FF4E133436000238360C3608A
:100B900003610C2242618361C36101F067FE00B909
:100BA00008BDFFF7E9FF00BF0446002000440040F5
:100BB00010B594B007AC34220021204603F0D2F8DF
:100BC00000230293039304930593069300931F4A13
:100BD000116C41F080511164126C02F0805200924D
:100BE000009A01931A490A6822F4404242F4804272
:100BF0000A600A6802F440420192019A02220792B6
:100C000001210A9110210B910D920E930F914FF437
:100C1000A87310930423119312921392204601F0AB
:100C200099F978B90F2302930221039100230493C9
:100C30004FF480520592069302A800F0CFFF18B936
:100C400014B010BDFFF798FFFFF796FF0038024081
:100C50000070004008B5002204210A2000F033FB98
:100C6000114B186000F0DAFDFFF7A2FFFFF71CFF41
:100C7000FFF784FFFFF7FEFC0C4A00210C48FFF74A
:100C800027FD0C4B18600C4A00210C48FFF720FD93
:100C90000B4B18600B4A00210B48FFF719FD0B4B5B
:100CA0001860FFF7F9FCFEE7F4450020204D00082E
:100CB000550B000800460020FC4C0008791700087E
:100CC000FC450020D84C000841170008F8450020DA
:100CD00082B0002301930D4B1B68B3F1FF3F08D096
:100CE0004FF0500383F31188BFF36F8FBFF34F8F23
:100CF000FEE74FF0500383F31188BFF36F8FBFF30C
:100D00004F8F019B002BFCD002B0704700000020E9
:100D100008480068006880F308884FF0000080F3FE
:100D2000148862B661B6BFF34F8FBFF36F8F00DFD9
:100D300000BF000008ED00E0DFF80C00016841F49E
:100D4000700101607047000088ED00E04FF0807393
:100D500040F8043C21F0010140F8081C054B40F824
:100D60000C3C40F8202C6FF0020340F8243C44383F
:100D7000704700BFD10C0008000000000000000018
:100D8000074B19680868B0E8F04F80F30988BFF393
:100D90006F8F4FF0000080F311887047AFF3008031
:100DA000DC4B00204FF0500383F31188BFF36F8FAB
:100DB000BFF34F8F0B4A136801331360012B00D030
:100DC00070474FF0E023D3F8043D13F0FF0FF7D046
:100DD0004FF0500383F31188BFF36F8FBFF34F8F32
:100DE000FEE700BF00000020094B1B6843B94FF02D
:100DF000500383F31188BFF36F8FBFF34F8FFEE76C
:100E0000013B034A13600BB983F31188704700BF9D
:100E100000000020000000000000000000000000B2
:100E2000EFF30980BFF36F8F154B1A681EF0100F98
:100E300008BF20ED108A20E9F04F10602DE909006D
:100E40004FF0500080F31188BFF34F8FBFF36F8FC7
:100E500002F0B0F94FF0000080F3118809BC196866
:100E60000868B0E8F04F1EF0100F08BFB0EC108A11
:100E700080F30988BFF36F8F704700BFAFF3008026
:100E8000DC4B002008B54FF0500383F31188BFF30B
:100E90006F8FBFF34F8F02F00DF828B14FF0E023B2
:100EA0004FF08052C3F8042D002383F3118808BD4E
:100EB0004FF0E022002313619361054B1B68054945
:100EC000A1FB03139B09013B536107231361704787
:100ED0000C000020D34D62104FF0E023D3F8002D1A
:100EE0003D4B9A421CD04FF0E023D3F8002D3B4BF2
:100EF0009A421ED030B583B0394B1A78D2B20192E3
:100F0000FF221A701B78DBB28DF803309DF8033096
:100F100003F05003334A1370334B07221A601BE06F
:100F20004FF0500383F31188BFF36F8FBFF34F8FE0
:100F3000FEE74FF0500383F31188BFF36F8FBFF3C9
:100F40004F8FFEE7284A1368013B13609DF803307A
:100F50005B00DBB28DF803309DF8033013F0800F97
:100F6000F0D1214B1B68032B08D04FF0500383F3C3
:100F70001188BFF36F8FBFF34F8FFEE71B021A4A32
:100F8000136003F4E0631360019BDBB2144A137037
:100F90004FF0E024D4F8203D43F47003C4F8203D22
:100FA000D4F8203D43F07043C4F8203DFFF780FFA4
:100FB00000250E4B1D60FFF7BFFED4F8343F43F011
:100FC0004043C4F8343FFFF7A3FE02F0F3F8FFF705
:100FD0007FFE284603B030BD71C20F4170C20F4181
:100FE00000E400E04C4600204846002000000020BD
:100FF000EFF305830F2B0ED9114A9A5C114B1B7826
:101000009A4208D24FF0500383F31188BFF36F8FD9
:10101000BFF34F8FFEE74FF0E023D3F80C3D03F40E
:10102000E063094A1268934208D94FF0500383F3F2
:101030001188BFF36F8FBFF34F8FFEE7704700BF7C
:10104000F0E300E04C4600204846002010B504467E
:10105000FFF7A8FEA26BE36B9A4204D00024FFF7CF
:10106000C3FE204610BD0124F9E710B50446FFF782
:1010700099FEA36B23B90124FFF7B6FE204610BDED
:101080000024F9E770B504461546866B026C5AB920
:1010900003681BB100200136A66370BD806802F0B2
:1010A000BBF90023A360F6E76DB9406802F033FF97
:1010B0006368226C13446360A268934219D3236867
:1010C00063602846E7E7C06802F025FFE368226C0A
:1010D00051429B1AE3602268934202D2A3680B44F8
:1010E000E360022D01D00020D5E726B1013E0020AB
:1010F000D1E72846CFE70020CDE70346026C6AB16E
:1011000010B50846D9681144D9609C68A14201D342
:101110001968D960D96802F0FEFE10BD704738B575
:101120000546FFF73FFE95F8454064B201E0013CFB
:1011300064B2002C0ADD6B6A43B105F1240002F0B1
:10114000BFF80028F3D002F051F9F0E7FF2385F84B
:101150004530FFF749FEFFF725FE95F8444064B29D
:1011600001E0013C64B2002C0ADD2B6943B105F1BA
:10117000100002F0A5F80028F3D002F037F9F0E7EC
:10118000FF2385F84430FFF72FFE38BD38B5E0B1B6
:101190000D460446FFF706FE2368E26B216C01FB57
:1011A0000230A0600020A0636360013A02FB0133BB
:1011B000E360FF2384F8443084F84530FDB92369A7
:1011C00063B9FFF711FE012038BD4FF0500383F3E0
:1011D0001188BFF36F8FBFF34F8FFEE704F110004C
:1011E00002F06EF80028ECD04FF0E0234FF0805270
:1011F000C3F8042DBFF34F8FBFF36F8FE1E704F106
:101200001000FFF70BFC04F12400FFF707FCD8E700
:1012100038B51D46049C0B4649B92460E06323643D
:1012200001212046FFF7B2FF84F84C5038BD226000
:10123000F4E740B94FF0500383F31188BFF36F8F89
:10124000BFF34F8FFEE710B584B01C46844653B100
:1012500092B189B94FF0500383F31188BFF36F8FB8
:10126000BFF34F8FFEE74FF0500383F31188BFF3B6
:101270006F8FBFF34F8FFEE76AB150230393039B39
:10128000502B13D04FF0500383F31188BFF36F8FAF
:10129000BFF34F8FFEE70029EFD04FF0500383F3E9
:1012A0001188BFF36F8FBFF34F8FFEE7039B0123BE
:1012B00084F8463000949DF818306046FFF7A8FF88
:1012C000204604B010BD40B94FF0500383F311889D
:1012D000BFF36F8FBFF34F8FFEE7F0B583B00D46BE
:1012E0001446064601FB00F05030FFF7D7FA0746D8
:1012F00050B1002380F846300090234600F15002A0
:1013000029463046FFF784FF384603B0F0BDF0B5FC
:1013100085B0019288B10F461D460446B1B1022D39
:1013200020D1E36B012B1DD04FF0500383F31188C4
:10133000BFF36F8FBFF34F8FFEE74FF0500383F380
:101340001188BFF36F8FBFF34F8FFEE7036C002B45
:10135000E5D04FF0500383F31188BFF36F8FBFF3D5
:101360004F8FFEE702F048F8064658B9019B002B64
:1013700048D04FF0500383F31188BFF36F8FBFF352
:101380004F8FFEE700263DE02A4639462046FFF70C
:1013900079FE636A7BB948B14FF0E0234FF0805289
:1013A000C3F8042DBFF34F8FBFF36F8FFFF71CFD02
:1013B000012005B0F0BD04F1240001F081FF0028F8
:1013C000F4D04FF0E0234FF08052C3F8042DBFF368
:1013D0004F8FBFF36F8FE9E7FFF706FD0020E8E7C7
:1013E00002A801F0B3FF012619E0002384F844307D
:1013F00021E0002384F8453023E02046FFF78FFEEC
:1014000001F0E4FDFFF7CEFCA26BE36B9A42BBD385
:10141000022DB9D0019B002BDED0002EE0D0FFF7CB
:10142000E3FC01F039FDFFF7BDFC94F8442052B213
:10143000B2F1FF3FD9D094F8452052B2B2F1FF3F4C
:10144000D7D0FFF7D1FC01A902A801F08BFFD8B9D2
:101450002046FFF7FBFD0028CFD0019904F11000D2
:1014600001F0FAFE2046FFF75AFE01F0AFFD00281A
:10147000C8D14FF0E0234FF08052C3F8042DBFF3E2
:101480004F8FBFF36F8FBDE72046FFF748FE01F097
:101490009DFD00208DE72DE9F84390B10F461646DB
:1014A0001C460546B1B1022C20D1EB6B012B1DD09F
:1014B0004FF0500383F31188BFF36F8FBFF34F8F4B
:1014C000FEE74FF0500383F31188BFF36F8FBFF334
:1014D0004F8FFEE7036C002BE5D04FF0500383F3F2
:1014E0001188BFF36F8FBFF34F8FFEE7FFF780FDCB
:1014F000EFF311884FF0500383F31188BFF36F8F20
:10150000BFF34F8FAA6BEB6B9A4206D3022C04D029
:10151000002088F31188BDE8F88395F845904FFACC
:1015200089F9AB6B224639462846FFF7ABFDB9F186
:10153000FF3F06D009F101035BB285F84530012079
:10154000E7E76B6A0BB90120E3E705F1240001F03E
:10155000B7FE18B126B101203060DAE70120D8E7E4
:101560000120D6E7F0B585B0019290B10F46044650
:10157000C1B101F041FF064600BB019B002B5ED0CC
:101580004FF0500383F31188BFF36F8FBFF34F8F7A
:10159000FEE74FF0500383F31188BFF36F8FBFF363
:1015A0004F8FFEE7036C002BE3D04FF0500383F323
:1015B0001188BFF36F8FBFF34F8FFEE700263EE029
:1015C00039462046FFF799FD013DA563236923B9FC
:1015D000FFF70AFC012005B0F0BD04F1100001F096
:1015E0006FFE0028F4D04FF0E0234FF08052C3F894
:1015F000042DBFF34F8FBFF36F8FE9E7FFF7F4FBC5
:101600000020E8E702A801F0A1FE012621E0002366
:1016100084F8443029E0002384F845302BE020464C
:10162000FFF77DFD01F0D2FC09E02046FFF777FDD2
:1016300001F0CCFC2046FFF718FD00283FD1FFF752
:10164000B1FBA56B002DBBD1019B002BD6D0002E8A
:10165000D8D0FFF7C9FB01F01FFCFFF7A3FB94F8FC
:1016600044305BB2B3F1FF3FD1D094F845305BB268
:10167000B3F1FF3FCFD0FFF7B7FB01A902A801F0FC
:1016800071FE0028D1D12046FFF7EFFC0028C6D01C
:10169000019904F1240001F0DFFD2046FFF73FFD32
:1016A00001F094FC0028CAD14FF0E0234FF08052A3
:1016B000C3F8042DBFF34F8FBFF36F8FBFE7002038
:1016C00089E700000023072B0CD8074A52F8332083
:1016D0000AB10133F7E7044A42F8331002EBC302C0
:1016E00050607047704700BF5046002070B50446F8
:1016F0000D461646FFF756FB94F844305BB2B3F143
:10170000FF3F0DD094F845305BB2B3F1FF3F0BD0F3
:10171000FFF76AFBA36B5BB12046FFF700FD70BDCE
:10172000002384F84430EDE7002384F84530EFE7E8
:101730003246294604F1240001F0A6FDECE7000042
:1017400000B583B04FF0FF3201A9084B1868FFF7CE
:1017500009FF0198FEF7F0FE02460B46044802F02E
:10176000BBF90021034802F0B7F9EBE7F44500208C
:10177000684C00087C4C000810B582B04FF07E53D6
:10178000019301F091FB0090204802F00DFA002433
:101790000DE03221684601F095FC1D4B01930023BA
:1017A0001A4601A91B480068FFF7B1FD0134042C5B
:1017B000EFD94FF07E5301933221684601F082FC4D
:1017C000DDED017AB7EE007A77EE877AFDEEE77A03
:1017D00017EE902A104981FB0231D317C3EBE103C6
:1017E00003EB8303A2EB830307EE903AF8EEE77A6C
:1017F000B6EE007A77EE877ACDED017A00231A46AD
:1018000001A904480068FFF782FDD5E7AC4C000849
:101810000000C07FF44500206766666608B50B4B84
:101820001A6842F400721A601A6842F480621A6000
:101830001A6842F480721A60032000F04FF80F20FB
:1018400000F042FF00F070F9002008BD003C0240AB
:10185000034A1168034B1B780B441360704700BFA9
:101860009046002004000020014B1868704700BF1C
:1018700090460020002808DB0901C9B200F1604051
:1018800000F5614080F80013704700F00F00090177
:10189000C9B2014B1954704714ED00E000B500F0D7
:1018A0000700C0F1070CBCF1040F28BF4FF0040C77
:1018B000031D062B0FD9C31E4FF0FF3E0EFA0CF08E
:1018C00021EA000199400EFA03FE22EA0E0241EAE3
:1018D00002005DF804FB0023EEE70000074AD3682E
:1018E00023F4E0631B041B0C000200F4E0600343DC
:1018F00043F0BF6343F40033D360704700ED00E072
:1019000010B50446054BD868C0F30220FFF7C6FFA8
:1019100001462046FFF7AEFF10BD00BF00ED00E01E
:10192000002807DB00F01F02400901239340024A10
:1019300042F82030704700BF00E100E000230F2B89
:1019400000F2E38070B582B065E085684FEA430E2F
:10195000032404FA0EF425EA0405CC6804FA0EF414
:101960002C438460446824EA02044A68C2F30012EB
:101970009A40224342605CE0DC08083450F824209E
:1019800003F00705AD004FF00F0E0EFA05FE22EA38
:101990000E0E0A69AA4042EA0E0240F824205CE0DA
:1019A000062200E0002202FA0EF22A430234574DCA
:1019B00045F82420564A94686FEA0C0224EA0C0584
:1019C0004E6816F4801F01D04CEA0405504CA56007
:1019D000E46802EA04054E6816F4001F01D04CEAE0
:1019E00004054B4CE560646802EA04054E6816F491
:1019F000003F01D04CEA0405454C65602468224054
:101A00004D6815F4803F01D04CEA0402404C22603E
:101A100001330F2B77D801229A400C6804EA020C9C
:101A200032EA0404F4D14C6804F00304013C012CB4
:101A30008BD94A6802F00302032A09D0C4685D000A
:101A40000322AA4024EA02048A68AA402243C26010
:101A50004A6802F00302022A8ED004684FEA430E5D
:101A6000032202FA0EF224EA02044A6802F0030298
:101A700002FA0EF2224302604A6812F4403FC7D0D5
:101A800000220192234A546C44F480445464526C02
:101A900002F480420192019A9C08A51C1B4A52F84C
:101AA000255003F0030E4FEA8E0E0F2202FA0EF2BB
:101AB00025EA0205184A90423FF474AF02F58062AD
:101AC000904216D002F58062904214D002F58062F6
:101AD000904212D002F58062904210D002F58062EE
:101AE00090420ED002F5806290423FF459AF072237
:101AF00059E7012257E7022255E7032253E7042260
:101B000051E705224FE702B070BD70470038014031
:101B1000003C014000380240000002400AB18161EF
:101B2000704709048161704700B583B000220092BC
:101B30000D4B596C41F480415964596C01F480415A
:101B4000009100990192196C41F0805119641B6C4D
:101B500003F080530193019B0F216FF00100FFF709
:101B6000CFFE03B05DF804FB0038024000B589B039
:101B70000023039304930593069307930268154B80
:101B80009A4202D009B05DF804FB0021019103F5EF
:101B9000FA331A6C42F400321A641A6C02F40032FE
:101BA0000192019A02911A6B42F001021A631B6BB7
:101BB00003F001030293029B0C230393022304937B
:101BC000032306930723079303A90348FFF7B6FEF1
:101BD000D8E700BF0044004000000240002800F0A9
:101BE0009B8070B50D4604464F4B1B6803F00F03F6
:101BF0008B4208D2CBB24C4A1370136803F00F0328
:101C00008B4240F08B80236813F0020F17D013F043
:101C1000040F04D0454A936843F4E053936023686B
:101C200013F0080F04D0414A936843F46043936073
:101C30003E4A936823F0F003A1680B439360236846
:101C400013F0010F32D06368012B21D09A1E012AB4
:101C500025D9364A126812F0020F61D033498A68DA
:101C600022F0030213438B60FFF7FEFD06462F4B65
:101C70009B6803F00C036268B3EB820F16D0FFF78A
:101C8000F3FD801B41F288339842F0D9032042E0F3
:101C9000264A126812F4003FE0D101203BE0234ABB
:101CA000126812F0007FD9D1012034E01E4B1B686E
:101CB00003F00F03AB4207D9EAB21B4B1A701B6843
:101CC00003F00F03AB422DD1236813F0040F06D0AD
:101CD000164A936823F4E053E1680B43936023684A
:101CE00013F0080F07D0114A936823F46043216969
:101CF00043EAC103936000F065F80C4B9B68C3F3A3
:101D000003130B4AD35CD8400A4B18600A4B18687F
:101D100000F0DAFC002070BD012070470120FAE7D6
:101D20000120F8E70120F6E7003C024000380240BD
:101D30004C4D00080C00002008000020014B1868E2
:101D4000704700BF0C00002008B5FFF7F7FF044BF9
:101D50009B68C3F38223034AD35CD84008BD00BF0D
:101D600000380240444D000808B5FFF7E7FF044B78
:101D70009B68C3F34233034AD35CD84008BD00BF1D
:101D800000380240444D00080F2303600B4B9A6853
:101D900002F0030242609A6802F0F00282609A68E0
:101DA00002F4E052C2609B68DB0803F4E053036175
:101DB000034B1B6803F00F030B60704700380240B1
:101DC000003C024008B5604B9B6803F00C03082BF5
:101DD00006D00C2B5ED0042B40F0B4805B4833E07F
:101DE000594B5A6802F03F025B6813F4800F2CD005
:101DF000554B5868C0F388104FEA401CBCEB000CF0
:101E00006EEB0E0E4FEA8E1343EA9C634FEA8C1181
:101E1000B1EB0C0163EB0E03DB0043EA5173C90025
:101E200011EB000C43F10003590200234FEA4C2050
:101E300041EADC51FEF7D8FB434B5B68C3F3014337
:101E400001335B00B0FBF3F008BD3F4B5868C0F3B3
:101E500088104FEA401CBCEB000C6EEB0E0E4FEAF4
:101E60008E1343EA9C634FEA8C11B1EB0C0163EBD8
:101E70000E03DB0043EA5173C90011EB000C43F180
:101E80000003990200234FEA8C2041EA9C51FEF79F
:101E9000ABFBD1E72C4B5A6802F03F025B6813F4AE
:101EA000800F2AD0284B5868C0F388104FEA401C96
:101EB000BCEB000C6EEB0E0E4FEA8E1343EA9C63F4
:101EC0004FEA8C11B1EB0C0163EB0E03DB0043EA2C
:101ED0005173C90011EB000C43F1000359020023B8
:101EE0004FEA4C2041EADC51FEF77EFB164B5B6863
:101EF000C3F30273B0FBF3F0A6E7134B5868C0F3CB
:101F000088104FEA401CBCEB000C6EEB0E0E4FEA43
:101F10008E1343EA9C634FEA8C11B1EB0C0163EB27
:101F20000E03DB0043EA5173C90011EB000C43F1CF
:101F30000003990200234FEA8C2041EA9C51FEF7EE
:101F400053FBD3E702487FE70038024000127A00D3
:101F50000024F400002800F0018270B582B004462D
:101F6000036813F0010F41D0994B9B6803F00C03F9
:101F7000042B32D0964B9B6803F00C03082B27D020
:101F8000934B9B6803F00C030C2B59D06368B3F59B
:101F9000803F5BD0B3F5A02F5ED08D4B1A6822F442
:101FA00080321A601A6822F480221A606368002B5B
:101FB0005CD0FFF759FC0546854B1B6813F4003FC6
:101FC00014D1FFF751FC401B6428F5D90320CCE164
:101FD0007F4B5B6813F4800FD2D07D4B1B6813F4EA
:101FE000003F03D06368002B00F0BA81236813F030
:101FF000020F60D0764B9B6813F00C0F4AD0744BE5
:102000009B6803F00C03082B3FD0714B9B6803F0D7
:102010000C030C2B69D0E368002B75D06D4B0122AB
:102020001A60FFF721FC0546694B1B6813F0020F8D
:1020300061D1FFF719FC401B0228F5D9032094E178
:10204000634B5B6813F4800FA0D0C6E7604A136847
:1020500043F480331360A9E75D4B1A6842F4802291
:102060001A601A6842F480321A609FE7FFF7FCFB9F
:102070000546574B1B6813F4003FB7D0FFF7F4FB3E
:10208000401B6428F5D903206FE1514B5B6813F4C2
:10209000800FBAD14E4B1B6813F0020F03D0E368D8
:1020A000012B40F05F814A4A136823F0F80321694D
:1020B00043EAC1031360236813F0080F49D0636932
:1020C000002B33D0434B0122C3F8802EFFF7CCFB0B
:1020D00005463F4B5B6F13F0020F3AD1FFF7C4FB8D
:1020E000401B0228F5D903203FE1394B5B6813F40C
:1020F000800F90D1CEE7364A136823F0F8032169A8
:1021000043EAC1031360D6E7324B00221A60FFF79F
:10211000ABFB05462E4B1B6813F0020FCBD0FFF72D
:10212000A3FB401B0228F5D903201EE1294B002206
:10213000C3F8802EFFF798FB0546254B5B6F13F025
:10214000020F06D0FFF790FB401B0228F5D90320B1
:102150000BE1236813F0040F76D01D4B1B6C13F0BA
:10216000805F33D100230193194B1A6C42F08052E7
:102170001A641B6C03F080530193019B0125164BDD
:102180001B6813F4807F29D0A368012B3AD0052B5C
:102190003ED00F4B1A6F22F001021A671A6F22F01D
:1021A00004021A67A368002B3CD0FFF75DFB0646CC
:1021B000074B1B6F13F0020F45D1FFF755FB801B38
:1021C00041F288339842F3D90320CEE00025D6E7C8
:1021D0000038024000004742007000406B4A13681C
:1021E00043F480731360FFF73FFB0646674B1B68A1
:1021F00013F4807FC8D1FFF737FB801B0228F5D985
:102200000320B2E0624A136F43F001031367C9E78A
:102210005F4B1A6F42F004021A671A6F42F0010214
:102220001A67BFE7FFF720FB0646594B1B6F13F0F9
:10223000020F08D0FFF718FB801B41F28833984249
:10224000F3D9032091E0EDB9A369002B00F08C8055
:102250004F4A926802F00C02082A54D0022B17D081
:102260004C4B00221A66FFF7FFFA0446484B1B68E6
:1022700013F0007F45D0FFF7F7FA001B0228F5D9CD
:10228000032072E0424A136C23F080531364DBE7AF
:10229000404B00221A66FFF7E7FA05463C4B1B68E5
:1022A00013F0007F06D0FFF7DFFA401B0228F5D9B4
:1022B00003205AE0E369226A1343626A43EA821305
:1022C000A26A5208013A43EA0243E26A43EA02631D
:1022D000226B43EA02732E4A53602E4B01221A6688
:1022E000FFF7C2FA04462A4B1B6813F0007F06D1A1
:1022F000FFF7BAFA001B0228F5D9032035E00020C9
:1023000033E0002031E0012B31D0214B5B6803F436
:102310008001E26991422CD103F03F02216A8A4296
:1023200029D1616A47F6C0721A40B2EB811F24D1ED
:1023300003F44031A26A5208013AB1EB024F1ED1B8
:1023400003F07062E16AB2EB016F1AD103F0E0436F
:10235000226BB3EB027F16D1002006E0012070470C
:10236000012002E0012000E0002002B070BD012049
:10237000FBE70120F9E70120F7E70120F5E701205D
:10238000F3E70120F1E70120EFE700BF0070004014
:1023900000380240000047427047000090F83D308E
:1023A000012B37D1022380F83D300268D36843F017
:1023B0000103D3600368194A934220D0B3F1804FE0
:1023C0001DD0A2F57C42934219D002F5806293425F
:1023D00015D002F58062934211D002F57842934203
:1023E0000DD002F57052934209D0A2F59432934277
:1023F00005D01A6842F001021A60002070479A68FE
:1024000002F00702062A07D01A6842F001021A6099
:1024100000207047012070470020704700000140F5
:10242000704770477047704710B5044603681A69D3
:1024300012F0020F11D0DA6812F0020F0DD06FF017
:1024400002021A610123037703689B6913F0030FEB
:1024500070D0FFF7E6FF0023237723681A6912F094
:10246000040F12D0DA6812F0040F0ED06FF00402DD
:102470001A610223237723689B6913F4407F5FD09E
:102480002046FFF7CEFF0023237723681A6912F056
:10249000080F12D0DA6812F0080F0ED06FF00802A1
:1024A0001A61042323772368DB6913F0030F4ED0EE
:1024B0002046FFF7B6FF0023237723681A6912F03E
:1024C000100F12D0DA6812F0100F0ED06FF0100259
:1024D0001A61082323772368DB6913F4407F3DD01A
:1024E0002046FFF79EFF0023237723681A6912F026
:1024F000010F03D0DA6812F0010F36D123681A6990
:1025000012F0800F03D0DA6812F0800F34D1236804
:102510001A6912F0400F03D0DA6812F0400F32D17E
:1025200023681A6912F0200F03D0DA6812F0200F26
:1025300030D110BDFFF774FF2046FFF773FF8AE725
:102540002046FFF76DFF2046FFF76CFF9BE7204614
:10255000FFF766FF2046FFF765FFACE72046FFF771
:102560005FFF2046FFF75EFFBDE76FF001021A61D3
:102570002046FEF7F5FAC1E76FF080021A612046A7
:1025800000F0A1F8C3E76FF040021A612046FFF7A0
:102590004AFFC5E76FF020021A61204600F092F86A
:1025A000C7E700000368304A904212D0B0F1804F74
:1025B0000FD0A2F57C4290420BD002F5806290428F
:1025C00007D002F58062904203D002F57842904233
:1025D00003D123F070034A681343234A90422AD060
:1025E000B0F1804F27D0A2F57C42904223D002F573
:1025F000806290421FD002F5806290421BD002F5AB
:102600007842904217D002F57052904213D002F5F2
:10261000806290420FD002F5806290420BD0A2F50A
:102620009832904207D002F58062904203D002F5C2
:102630008062904203D123F44073CA68134323F0AD
:1026400080034A69134303608B68C3620B6883622B
:10265000054B984203D003F58063984201D10B6982
:1026600003630123436170470000014040B310B58C
:10267000044690F83D30F3B1022384F83D30214602
:1026800051F8040BFFF78EFF012384F8463084F8DD
:102690003E3084F83F3084F8403084F8413084F88C
:1026A000423084F8433084F8443084F8453084F86C
:1026B0003D30002010BD80F83C30FFF76DFEDBE7B9
:1026C000012070477047704730B589B00546002437
:1026D00001941D4B5A6C42F001025A645B6C03F08A
:1026E00001030193019B02A903A8FFF74DFBFFF72C
:1026F0003BFB164AA2FB00239B0C013B1448154AE6
:10270000026040F2E732C260436004618460846129
:10271000FFF7ACFF044610B1204609B030BD0C48AD
:10272000FFF73CFE04460028F6D11920FFF7F8F821
:102730000F2D01D90124EFE7002229461920FFF7C8
:10274000DFF8054B1D60E7E70038024083DE1B43DE
:1027500094460020000001400800002010B5044607
:102760000268136923F44053C1680B431361836803
:1027700002691A4343691A43C3691A430168CB6863
:1027800023F4164323F00C031343CB600268536910
:1027900023F4407381690B4353610368314A9342C8
:1027A00006D002F58062934202D0FFF7CDFA01E035
:1027B000FFF7DAFAE369B3F5004F29D000210318D7
:1027C00049411B1841F10001C90041EA5371DB0086
:1027D000181863684FEA83024FEA937341F10001CE
:1027E000FDF702FF204AA2FB00314909642303FBE5
:1027F00011031B013233A2FB03235B0903F0F00238
:1028000002EB011203F00F03216813448B6010BD2B
:102810000023021843EB0301121841F10001C90023
:1028200041EA5271D200101841F100016268921819
:102830005B41FDF7D9FE0C4AA2FB00314909642334
:1028400003FB1103DB003233A2FB03235B095A00B5
:1028500002F4F87202EB011203F00703216813443B
:102860008B60D4E7001001401F85EB5158B310B5C1
:10287000044690F83D300BB3242384F83D302268A1
:10288000D36823F40053D3602046FFF767FF226824
:10289000136923F4904313612268536923F02A03D8
:1028A00053612268D36843F40053D360002020644E
:1028B000202384F83D3084F83E3010BD80F83C3051
:1028C000FFF754F9D8E701207047FEE7FEE7FEE77F
:1028D000FEE7FEE77047000008B50248FFF7A4FDD9
:1028E00008BD00BF9446002070B50C461646002572
:1028F00006E0AFF30080214601F8010B01350C46DC
:10290000B542F6DB304670BD70B50C461646002564
:1029100004E014F8010BAFF300800135B542F8DB99
:10292000304670BD4FF0FF3070474FF400534B609E
:1029300000207047012070470020704710B5034603
:102940000C4A0D490D48006840B10C48006803442A
:10295000521A934206D8094A136010BD0748084C22
:102960000460F2E701F0AAFA0C2303604FF0FF3095
:10297000F3E700BF0000022000040000DC46002056
:10298000584E0020034AD2F8883043F47003C2F84E
:102990008830704700ED00E0084B1B681B6823B9C6
:1029A000074B4FF0FF321A607047044B1B68DB681F
:1029B000DB685A68024B1A60704700BF504700201E
:1029C000E84600202DE9F04780460D461746994617
:1029D000089EDDF824A00A9C9200A521206B01F03E
:1029E000C1F9236B07F18042013A03EB820727F01C
:1029F0000707002D61D04FF0000CBCF10F0F09D874
:102A000015F80C3004EB0C0282F8343013B10CF1E1
:102A1000010CF2E7002384F84330372E00D9372623
:102A2000E662E66400252565201DFEF702F804F144
:102A30001800FDF7FEFF2461C6F13806A661646246
:102A4000C4F8985184F89C514FF4A072294604F1BF
:102A5000580001F087F91B4BE36503F16802226619
:102A6000D033636601220023C4E93C2343F20E33D2
:102A7000A4F8F8304AF6CD33A4F8FA3041F2342302
:102A8000A4F8FC304EF26D63A4F8FE304DF6EC6312
:102A9000A4F800310523A4F802310B23A4F8043173
:102AA0004A4641463846FEF751F92060BAF1000F18
:102AB00001D0CAF80040BDE8F087002384F8343024
:102AC000ABE700BF0C4D002038B5002407E004EB55
:102AD000840293000E481844FDF7A0FF0134372C00
:102AE000F5D90C4D2846FDF799FF0B4C2046FDF714
:102AF00095FF0A48FDF792FF0948FDF78FFF094847
:102B0000FDF78CFF084B1D60084B1C6038BD00BFF3
:102B10007C470020684700205447002038470020A9
:102B2000244700200C470020504700204C4700203D
:102B300010B50446FEF736F9224A136801331360D4
:102B4000214B1B685BB1214B1B686BB91E4B1B688B
:102B5000DA6AE36A9A4207D81B4B1C6004E01A4BFE
:102B60001C601368012B29D0194A136801331360C4
:102B70006364E06A174B1B68984201D9154B1860D3
:102B800000EB8000211D144B03EB8000FDF754FF88
:102B9000FEF72AF90D4B1B687BB10B4B1B68DA6AF9
:102BA000E36A9A4209D24FF0E0234FF08052C3F813
:102BB000042DBFF34F8FBFF36F8F10BDFFF784FF5E
:102BC000D2E700BF08470020DC4B0020FC46002075
:102BD000EC460020004700207C47002010B504464A
:102BE000583001F0D7F894F89D3163B1012B11D022
:102BF000022B0ED04FF0500383F31188BFF36F8F79
:102C0000BFF34F8FFEE7206BFDF7CAFE2046FDF7AE
:102C1000C7FE10BD2046FDF7C3FEFAE70F4B1B6849
:102C2000D3B110B5FEF7BEF80D4BDB68DC68201D94
:102C3000FDF726FF0B4A1368013B1360074A136830
:102C4000013B1360FEF7D0F82046FFF7C7FF034BA8
:102C50001B68002BE6D110BD704700BF2047002045
:102C6000244700200847002008B5FFF7D7FF074B8F
:102C70001B68012BF9D94FF0E0234FF08052C3F8C5
:102C8000042DBFF34F8FBFF36F8FEEE77C4700201B
:102C900070B504460D46174B1E68174B1868043074
:102CA000FDF7EEFEB4F1FF3F0DD03444124B1B682C
:102CB0005C60A64210D9114B18680F4B196804319B
:102CC000FDF7C5FE70BD002DEFD00B4B1968043128
:102CD0000B48FDF7B1FEF5E70A4B1868064B19687B
:102CE0000431FDF7B4FE084B1B68A342EAD9064B3A
:102CF0001C60E7E704470020DC4B00204C47002025
:102D00000C47002050470020E846002030B587B02F
:102D10000B9C8CB10C9DC5B14FF4D0750495049DEE
:102D2000B5F5D07F1AD04FF0500383F31188BFF36D
:102D30006F8FBFF34F8FFEE74FF0500383F311887F
:102D4000BFF36F8FBFF34F8FFEE74FF0500383F356
:102D50001188BFF36F8FBFF34F8FFEE7049D0C9D6B
:102D60002C63022485F89D4100240394029505AC50
:102D700001940A9C0094FFF725FE0C98FFF7D8FEFB
:102D8000059807B030BD2DE9F04385B00746884669
:102D900014461E469000FDF781FD10B381464FF4A6
:102DA000D070FDF77BFD0546A8B1C0F83090002338
:102DB00080F89D31039302900D9B01930C9B00932F
:102DC0003346224641463846FFF7FCFD2846FFF7CA
:102DD000AFFE012007E04846FDF7E2FD4FF0FF306F
:102DE00001E04FF0FF3005B0BDE8F08310B588B0CA
:102DF00000240594069407AA06A905A8FDF7D2FCAD
:102E0000059B0293069B019300942346079A1A4957
:102E10001A48FFF77BFF1A4B1860E8B100F0B0FBCF
:102E200001281AD14FF0500383F31188BFF36F8F3D
:102E3000BFF34F8F134B1B685833134A1360134B68
:102E40004FF0FF321A60124B01221A60114B002220
:102E50001A60FEF741F803E00020B0F1FF3F01D017
:102E600008B010BD4FF0500383F31188BFF36F8F8C
:102E7000BFF34F8FFEE700BFC04C0008692C00086D
:102E8000E4460020DC4B00201C000020E846002027
:102E9000FC46002004470020024A136801331360F7
:102EA000704700BFE0460020014B1868704700BF24
:102EB00004470020F8B53A4B1B68002B69D1394B09
:102EC0001D6801351D60C5B9374B1B681B6843B1D0
:102ED0004FF0500383F31188BFF36F8FBFF34F8F11
:102EE000FEE7314A1168314B186810601960304AAA
:102EF000136801331360FFF74FFD2E4B1B68AB4285
:102F00003DD900272C4B1B68DB6A03EB83039A0037
:102F10002A4B9B58012B00D90127294B1B68002BFA
:102F20003CD001273AE001271F4B1B681B6843B3C5
:102F30001D4B1B68DB68DC6863689D4226D3261D39
:102F40003046FDF79DFDA36A1BB104F11800FDF7A3
:102F500097FDE36A1B4A1268934201D9194A13602C
:102F600003EB83039A00314614481044FDF764FDD7
:102F7000E26A114B1B68DB6A9A42D4D2D4E700277D
:102F8000D2E70C4B4FF0FF321A60BBE7094A1360DF
:102F9000B8E70D4A13680133136000273846F8BDBF
:102FA000E046002004470020504700204C47002006
:102FB000F0460020E8460020DC4B00207C47002043
:102FC000F446002000470020F846002038B5354B75
:102FD0001B6843B94FF0500383F31188BFF36F8F21
:102FE000BFF34F8FFEE7FDF7DDFE2E4B1A68013A67
:102FF0001A601B68002B4FD12B4B1B680BB90024A8
:103000004BE00024294B1B681BB3284BDB68DC68B2
:1030100004F11800FDF734FD251D2846FDF730FDAD
:10302000E06A234B1B68984201D9214B186000EBE2
:10303000800029461F4B03EB8000FDF7FDFCE26A90
:103040001D4B1B68DB6A9A42DCD31C4B01221A60C1
:10305000D8E70CB1FFF7A0FC194B1C6884B9174BDB
:103060001C68D4B14FF0E0234FF08052C3F8042D18
:10307000BFF34F8FBFF36F8F01240EE0013C07D0E9
:10308000FFF718FF0028F9D00C4B01221A60F5E772
:103090000B4B00221A60E2E70024FDF7A5FE204654
:1030A00038BD00BFE0460020084700203847002018
:1030B000004700207C470020DC4B0020F446002025
:1030C000F846002038B558B10C46054689B94FF08E
:1030D000500383F31188BFF36F8FBFF34F8FFEE769
:1030E0004FF0500383F31188BFF36F8FBFF34F8FFF
:1030F000FEE71B4B1B6843B14FF0500383F311886D
:10310000BFF36F8FBFF34F8FFEE7FFF7C5FE154B81
:1031100018682B681C44834209D9A34201D82C604B
:103120000EE0A04201D32C600AE02C6004E0A34230
:1031300001D8A04212D22C600021201AFFF7A8FD6E
:10314000FFF744FF48B94FF0E0234FF08052C3F837
:10315000042DBFF34F8FBFF36F8F38BD2C60EFE7A7
:10316000E04600200447002010B5A8B10446104BEB
:103170001B6843B14FF0500383F31188BFF36F8F87
:10318000BFF34F8FFEE7FFF787FE00212046FFF7D2
:103190007FFDFFF71BFF48B94FF0E0234FF080524F
:1031A000C3F8042DBFF34F8FBFF36F8F10BD00BF67
:1031B000E0460020224B1B681BB1224B01221A6003
:1031C0007047204B00221A601F4B1B6803EB8301E2
:1031D0008A001E498A585AB90BB1013BF6E74FF0F5
:1031E000500383F31188BFF36F8FBFF34F8FFEE758
:1031F000084603EB83018A00024451684968516024
:1032000003EB830C4FEA8C020832024491420FD048
:1032100003EB830291000D4A0A445268D1680C4ABC
:10322000116009490B60136858330A4A13607047EC
:10323000486862469100054A0A445060E8E700BFCA
:10324000E0460020F4460020004700207C47002094
:10325000DC4B00201C00002058B110B50C46094A78
:1032600011681831FDF7F3FB01212046FFF710FD2F
:1032700010BD4FF0500383F31188BFF36F8FBFF37E
:103280004F8FFEE7DC4B002038B570B10D46144679
:103290000A4A11681831FDF7CFFB0CB14FF0FF352A
:1032A00021462846FFF7F4FC38BD4FF0500383F366
:1032B0001188BFF36F8FBFF34F8FFEE7DC4B002009
:1032C00038B5C368DC6824B304F118052846FDF757
:1032D000D7FB184B1B682BBB251D2846FDF7D0FBE1
:1032E000E06A154B1B68984201D9134B186000EB3C
:1032F00080002946114B03EB8000FDF79DFBE26A3D
:103300000F4B1B68DB6A9A4211D901200D4B1860E4
:1033100038BD4FF0500383F31188BFF36F8FBFF3B5
:103320004F8FFEE729460848FDF786FBE7E70020B8
:10333000EEE700BFE0460020004700207C47002069
:10334000DC4B0020F446002038470020034B1B686C
:103350000360034B1B684360704700BFF0460020CA
:1033600004470020E0B170B50C46054609B3FDF7EF
:1033700019FD1C4B19686B68C81A2268B2F1FF3F2F
:1033800028D0DFF864C0DCF800C02E68664501D0A4
:103390008B4224D9824215D80023236001241AE0ED
:1033A0004FF0500383F31188BFF36F8FBFF34F8F3C
:1033B000FEE74FF0500383F31188BFF36F8FBFF325
:1033C0004F8FFEE75B1A134423602846FFF7BEFFCA
:1033D000002400E00024FDF707FD204670BD012415
:1033E000F9E700BF04470020F0460020014B01220E
:1033F0001A607047F4460020054B1B6833B1054B3B
:103400001B680BB1002070470220704701207047F5
:10341000FC460020E046002000283BD038B504469A
:103420001E4B1B68834208D04FF0500383F3118872
:10343000BFF36F8FBFF34F8FFEE7036D43B94FF0BC
:10344000500383F31188BFF36F8FBFF34F8FFEE7F5
:10345000013B0365C16AC26C91421DD00BB10020D3
:1034600038BD051D2846FDF70BFBE06CE062C0F19E
:103470003803A3610A4B1B68984201D9084B1860B6
:1034800000EB80002946074B03EB8000FDF7D4FAE0
:103490000120E5E7002070470020E1E7DC4B002039
:1034A000004700207C470020064B1A6813682BB9A0
:1034B0000123036023B9D368186870470023F8E735
:1034C00000207047E04C002008B541600061914247
:1034D0000CD8D21A83699A4201D3012008BD011D7C
:1034E000094B1868FDF7B3FA0020F7E79A4201D2BA
:1034F000994206D2011D054B1868FDF7A8FA002075
:10350000ECE70120EAE700BFDC4C0020E04C0020A3
:1035100030B583B0FDF746FC114B1B681BB1FDF7BE
:1035200063FC03B030BD0F4D2846FDF777FA0E4C13
:103530002046FDF773FA0D4B1D600D4B1C600023F8
:1035400000930C4B0C4A10210A20FDF772FE044B2D
:1035500018600028E3D00949FEF7B4F8DFE700BFA0
:10356000D84C0020F84C0020E44C0020E04C002017
:10357000DC4C0020E04B0020304C0020C84C000800
:1035800010B588B0FFF7C4FF124B1B68CBB1002405
:103590000594069407AA06A905A8FDF70FF9059B4F
:1035A0000293069B0193022300932346079A0A493C
:1035B0000A48FFF7ABFB0A4B186010B1012008B0B6
:1035C00010BD4FF0500383F31188BFF36F8FBFF32B
:1035D0004F8FFEE7D84C0020D04C0008E53800089B
:1035E000D44C0020B8B19C4603461848006858B334
:1035F00000B585B000910192029305291CDCFFF70C
:10360000FBFE022810D000231A4669460F480068C6
:10361000FDF77DFE15E04FF0500383F31188BFF3F3
:103620006F8FBFF34F8FFEE70023069A6946074866
:103630000068FDF76CFE04E0002362466946FDF772
:103640002AFF05B05DF804FB00207047D84C00202D
:1036500070B582B01B4B1B681A6862B3DB681E68CA
:10366000DC68251D2846FDF70BFA236A204698479B
:1036700094F8283013F0040FECD0A36933449E4231
:1036800007D26360246129460E4B1868FDF7DFF905
:10369000E0E7002100910B4632462046FFF7A2FFEB
:1036A0000028D7D14FF0500383F31188BFF36F8FF9
:1036B000BFF34F8FFEE7044A1068024908601360A9
:1036C00002B070BDE04C0020DC4C002038B505464F
:1036D000FFF7EAFB0446074B1B68834205D800232B
:1036E0002B60044B1C60204638BDFFF7B1FF01235F
:1036F0002B60F6E7D04C002070B582B006460D4630
:1037000017490968C968CC68201DFDF7B9F994F814
:1037100028C01CF0040F08D12CF0010C84F828C03C
:10372000236A2046984702B070BDA16933462A46F5
:1037300031442046FFF7C8FE0028F1D00021009157
:103740000B4632462046FFF74DFF0028E8D14FF0E8
:10375000500383F31188BFF36F8FBFF34F8FFEE7E2
:10376000E04C002070B582B006460C46FFF794FB93
:1037700001A8FFF7ABFF019B33BB0546E4B9B0429C
:1037800013D22246711B124B1868FDF7AFFFFFF7EB
:103790001DFCD8B94FF0E0234FF08052C3F8042D40
:1037A000BFF34F8FBFF36F8F10E0FFF70FFC294679
:1037B0003046FFF7A1FF09E0064A126812680AB90D
:1037C0000124DEE71C46DCE7FFF700FC02B070BD19
:1037D000D84C0020DC4C002010B588B002E0049BDF
:1037E000002B0FDA002204A93D4B1868FDF7BAFE42
:1037F000002872D0049B002BF1DA07990698059BEC
:103800009847ECE7069C636913B1201DFDF738F972
:1038100003A8FFF75BFF0246049B092BE2D8DFE811
:1038200003F00505052F364E05052F3694F8283090
:1038300043F0010384F82830059BA1691944204610
:10384000FFF742FE0028CDD0236A2046984794F81F
:10385000283013F0040FC5D0A269002100910B4657
:10386000059802442046FFF7BDFE0028BAD14FF06C
:10387000500383F31188BFF36F8FBFF34F8FFEE7C1
:1038800094F8283023F0010384F82830AAE794F84C
:10389000283043F0010384F828300599A16129B14B
:1038A000034601442046FFF70FFE9BE74FF050030D
:1038B00083F31188BFF36F8FBFF34F8FFEE794F848
:1038C000283013F0020F04D023F0010384F82830CD
:1038D00088E72046FDF764F884E708B010BD00BF14
:1038E000D84C002000B583B001A8FFF7DDFD019999
:1038F000FFF738FFFFF770FFF6E70000DFF834D07E
:103900000D480E490E4A002302E0D458C450043337
:10391000C4188C42F9D30B4A0B4C002301E013600E
:103920000432A242FBD3FFF72DF800F0CDFAFDF7E9
:1039300091F9704700000220000000206C00002078
:10394000A04D000870000020584E0020FEE7000047
:10395000002310B50446C0E90033C0E90433836096
:1039600081814366C2818361194608225C3000F080
:10397000F9F90D4B63620D4BA3620D4BE3620D4BE6
:1039800023630D4B24629C4206D003F168029442EB
:1039900002D0D0339C4205D104F15800BDE810405C
:1039A00000F0B6BA10BD00BFB93B0008DB3B000811
:1039B000133C0008393C00080C4D0020024A034922
:1039C000034800F06BB800BF10000020C947000892
:1039D0002000002041680C4B994210B5044601D0EC
:1039E00000F0F2FEA168094B994202D0204600F097
:1039F000EBFEE168064B994204D02046BDE810403A
:103A000000F0E2BE10BD00BF0C4D0020744D002040
:103A1000DC4D00200C4B0D4A0D4810B504211A60F6
:103A20000022FFF795FF0A4B01221C46092103F1F2
:103A30006800FFF78DFF04F1D0000222BDE81040BE
:103A40001221FFF785BF00BF444E0020BD3900089A
:103A50000C4D0020014800F05CBA00BF4D4E002024
:103A6000014800F057BA00BF4D4E002010B5044683
:103A7000FFF7F0FF236A1BB1BDE81040FFF7F0BF6E
:103A8000044B2362044B1B68002BF5D1FFF7C2FFE8
:103A9000F2E700BFD5390008444E00202DE9F84375
:103AA0000746884614460026D4E90195B9F1010974
:103AB00005D52468002CF7D13046BDE8F883AB89E2
:103AC000012B07D9B5F90E30013303D0294638460A
:103AD000C04706436835E9E70FB407B5064904ABAC
:103AE000086853F8042B8168019300F045FB03B08C
:103AF0005DF804EB04B070471C000020036A70B549
:103B0000846805460E460BB9FFF7B0FF636EDB070E
:103B100005D4A389980502D4A06D00F0FAF9A38911
:103B2000190702D52369002B35D12146284600F01C
:103B3000C5F880B34FF0FF35636EDA0705D4A3896B
:103B40009B0502D4A06D00F0E5F9284670BD002B5E
:103B500004DAA269934217DB0A2915D023685A1C9C
:103B600022601970A36816F8011F013BA3600029A9
:103B7000EDD1002B11DA22460A21284600F060F828
:103B80000130D7D00A25D7E72246284600F058F85A
:103B90000130E7D1CEE7013EE4E723685A1C2260FA
:103BA0000A221A70EEE70000024B01461868FFF780
:103BB000A5BF00BF1C00002010B50C46B1F90E10C7
:103BC00000F058F90028ABBF636DA3891B1823F4DC
:103BD0008053ACBF6365A38110BD2DE9F0411F4642
:103BE0008B89DB0505460C46164605D5B1F90E1046
:103BF0000223002200F02CF9A389B4F90E1023F45B
:103C00008053A38132463B462846BDE8F04100F090
:103C100043B910B50C46B1F90E1000F019F9B4F91A
:103C20000C30421C0BBF23F4805343F48053A38118
:103C3000A38118BF606510BDB1F90E1000F09AB8ED
:103C4000F8B50E461446054618B1036A0BB9FFF7DE
:103C50000DFFA369A360A3891A0701D5236943B99E
:103C60002146284600F02AF818B14FF0FF373846B1
:103C7000F8BD23682269981A6369F6B28342374611
:103C800005DC2146284600F09FFD0028EDD1A36801
:103C9000013BA36023685A1C22601E706269431CAA
:103CA0009A4204D0A389DB07E1D50A2EDFD1214651
:103CB000284600F089FD0028D9D0D6E738B5284B32
:103CC000054618680C4618B1036A0BB9FFF7CEFE1B
:103CD000B4F90C301A0721D4D80607D409222A6077
:103CE00043F04003A3814FF0FF3030E0590712D575
:103CF000616B41B104F14403994202D0284600F0BF
:103D000019F9002363630022B4F90C306260226960
:103D1000226023F0240343F00803A38122693AB907
:103D20009A0501D5180603D52146284600F098FDCE
:103D3000B4F90C3013F001020AD00022A2606269CB
:103D40005242A261226942B913F08000C8D138BD45
:103D5000990758BF6269A260F4E70020F7E700BF47
:103D60001C00002002440346934200D1704703F830
:103D7000011BF9E738B5064D0023044608462B60C1
:103D8000FEF7D0FD431C02D12B6803B1236038BD80
:103D9000484E00202D4B1B68834270B5044653D01B
:103DA000C3691BB3DB6863B10025E369DB6859595C
:103DB000B1B90435802DF8D1E3692046D96800F007
:103DC000B9F8E369196811B1204600F0B3F8E36966
:103DD0009D685DB1294620462D6800F0ABF8F8E7F4
:103DE0000E68204600F0A6F83146E1E7616911B19E
:103DF000204600F09FF8E16911B1204600F09AF8E2
:103E0000216B11B1204600F095F8616B11B120468D
:103E100000F090F8A16B11B1204600F08BF8A16C76
:103E200011B1204600F086F8616C11B1204600F017
:103E300081F8E16A11B1204600F07CF8236A1BB1D9
:103E40002046BDE87040184770BD00BF1C00002030
:103E500038B5074D04460846114600222A601A4626
:103E6000FEF76AFD431C02D12B6803B1236038BD05
:103E7000484E002038B5074D04460846114600223A
:103E80002A601A46FEF730FD431C02D12B6803B1AD
:103E9000236038BD484E002038B5074D044608461B
:103EA000114600222A601A46FEF72EFD431C02D15D
:103EB0002B6803B1236038BD484E0020014B1868C1
:103EC000704700BF1C00002070B50D4B0D4D5B1BF3
:103ED0009C100026A64209D100F0AAFE0A4D0B4B09
:103EE0005B1B9C100026A64205D170BD55F8043B13
:103EF00098470136EEE755F8043B98470136F2E75C
:103F0000984D0008984D0008984D00089C4D0008F9
:103F10007047704770470A44914200F1FF3300D167
:103F2000704710B511F8014B03F8014F9142F9D1D8
:103F300010BD000038B50546002941D051F8043CB9
:103F40000C1F002BB8BFE41800F0E0F81D4A1368FE
:103F500033B9636014602846BDE8384000F0DCB82F
:103F6000A34208D9206821188B4201BF19685B68F9
:103F700009182160EDE71A465B680BB1A342FAD934
:103F800011685018A0420BD1206801445018834298
:103F90001160E0D118685B68536008441060DAE78C
:103FA00002D90C232B60D6E7206821188B4204BF6E
:103FB00019685B68636004BF091821605460CAE730
:103FC00038BD00BF544E002070B50F4E0C4631680E
:103FD000054611B900F0A0FC30602146284600F0EB
:103FE0009BFC431C03D14FF0FF34204670BDC41C22
:103FF00024F00304A042F8D0211A284600F08CFCDB
:104000000130F2D1EFE700BF504E00202DE9F84318
:10401000CD1C25F0030508350C2D38BF0C25002DCF
:10402000064601DBA94204D90C2333600020BDE819
:10403000F883DFF8D48000F069F8D8F800301C4627
:1040400044BB29463046FFF7BFFF431C044658D106
:10405000D8F800402746002F43D1002C4BD02368CE
:104060003946304604EB030900F056FC814542D145
:1040700021686D1A29463046FFF7A6FF01303AD075
:1040800023682B442360D8F800305A6862BBC8F814
:1040900000700FE02268521B20D40B2A17D9611937
:1040A000A342256018BF5960636808BFC8F80010B4
:1040B00062514B60304600F02FF804F10B00231DD5
:1040C00020F00700C21A1CBF1B1AA350AFE762689A
:1040D000A3420CBFC8F800205A60EBE7234664688F
:1040E000AEE73C467F68B6E71A465B68A342FBD161
:1040F00000235360DEE70C233360304600F00CF8F9
:1041000094E70560D6E700BF544E00200148FFF752
:1041100000BF00BF4C4E00200148FFF7FBBE00BFB0
:104120004C4E00209368013B002B10B4936008DADA
:104130009469A34201DB0A2903D15DF8044BFFF720
:104140007FBD1368581C1060197008465DF8044B59
:104150007047F8B506460F461446D518AC4201D153
:10416000002007E014F8011B3A463046FFF7DAFF5B
:10417000431CF3D1F8BD00002DE9F04F0D469DB072
:1041800014469846064618B1036A0BB9FFF76EFC51
:104190006B6ED90705D4AB899A0502D4A86DFFF7D9
:1041A000B8FEAB891B0701D52B699BB92946304660
:1041B000FFF784FD70B16B6EDC0704D54FF0FF3064
:1041C0001DB0BDE8F08FAB899805F7D4A86DFFF757
:1041D000A1FEF3E70023099320238DF82930CDF8C1
:1041E0000C803023DFF8AC818DF82A304FF00109C4
:1041F00023469A4613F8012B0AB1252AF9D1BAEBC6
:10420000040B0BD05B46224629463046FFF7A1FF40
:10421000013000F0A780099A5A4409929AF80030B8
:10422000002B00F09F8000234FF0FF32CDE90523E3
:104230000AF1010A049307938DF853301A935446F8
:10424000052214F8011B5348FBF7C2FF049AD8B9A2
:10425000D10644BF20238DF85330130744BF2B23CE
:104260008DF853309AF800302A2B15D0079A54460F
:1042700000204FF00A0C214611F8013B303B092B7E
:104280004BD9B0B1079214E0A0EB080309FA03F38D
:1042900013430493A246D2E7039B191D1B680391A5
:1042A000002BBBBF5B4242F0020207930793B8BFEB
:1042B000049223782E2B0AD163782A2B32D1039BC8
:1042C0001A1D1B68039243EAE37302340593DFF877
:1042D000D4A0217803225046FBF77AFF38B1049B23
:1042E000A0EB0A004022824013430134049314F8E7
:1042F000011B29488DF828100622FBF769FF0028CA
:104300003FD0264B1BBB039B073323F00703083327
:104310000393099B3B4409936AE70CFB02320C466A
:104320000120A8E700230134059319464FF00A0C39
:10433000204610F8012B303A092A03D9002BC6D0A9
:104340000591C4E70CFB012104460123F0E703AB10
:1043500000932A46124B04A93046AFF3008007466B
:10436000781CD6D16B6ED90705D4AB899A0502D4D7
:10437000A86DFFF7CFFDAB895B063FF51FAF09982E
:104380001EE703AB00932A46054B04A9304600F014
:1043900079F8E4E75C4D0008664D00080000000075
:1043A00053410008624D00082DE9F0471646984633
:1043B0008A680B69DDF820909342B8BF13463360DA
:1043C00091F8432007460C460AB101333360236855
:1043D000990642BF336802333360256815F006053D
:1043E00006D104F1190AE36832689B1AAB4226DC55
:1043F00094F843302268003B18BF012392062BD467
:1044000004F1430241463846C84701301ED02368B4
:10441000226903F00603042B02BFE5683368ED1A36
:10442000A3680CBF25EAE57500259342C4BF9B1A1B
:10443000ED1800261A34B5421AD1002008E00123F5
:10444000524641463846C847013003D14FF0FF304D
:10445000BDE8F0870135C6E7E1185A1C302081F825
:104460004300224494F8451082F843100233C7E712
:104470000123224641463846C8470130E6D001367E
:10448000D9E700002DE9FF470F7E0C9E782F91465B
:1044900080460C469A4601F1430207D8622F0AD89B
:1044A000002F00F0D280582F00F0B78004F14206B0
:1044B00084F842703AE0A7F16303152BF6D801A106
:1044C00051F823F01D45000831450008AD440008AF
:1044D000AD440008AD440008AD4400083145000873
:1044E000AD440008AD440008AD440008AD440008E8
:1044F000314600085B450008E7450008AD44000868
:10450000AD44000853460008AD4400085B45000870
:10451000AD440008AD440008EF45000833681A1D9B
:104520001B68326004F1420684F8423001239DE0AA
:1045300033682068191D3160060601D51D6803E047
:104540004506FBD5B3F90050002D03DA2D236D424B
:1045500084F8433059480A2310E02168336808067C
:1045600053F8045B02D4490648BFADB26F2F5348DD
:10457000336059D10823002184F843106668A6608F
:10458000002E05DB21682E4321F0040121604DD06F
:104590001646B5FBF3F103FB1157C75D06F8017D25
:1045A0002F46BB420D46F4D9082B0BD12368DF07F9
:1045B00008D5236961689942DEBF302306F8013CC3
:1045C00006F1FF36921B2261CDF800A04B4603AAEC
:1045D00021464046FFF7E8FE01304CD14FF0FF3056
:1045E00004B0BDE8F087236843F02003236034481B
:1045F000782784F84570236831681F0651F8045BFA
:1046000002D45F0648BFADB23160D90744BF43F062
:10461000200323601DB11023ADE72848E9E7236894
:1046200023F020032360F6E70A23A4E71646BBE73E
:10463000336825686169181D30602E061B6801D536
:10464000196002E06806FBD5198000232361164635
:10465000BAE733681A1D32601E686268002130466E
:10466000FBF7B6FD08B1801B60606368236100231F
:1046700084F84330A8E72369324649464046D0478C
:104680000130ABD023689B0713D4E068039B9842AA
:10469000B8BF1846A4E70123324649464046D047F2
:1046A00001309BD00135E36803995B1AAB42F2DC21
:1046B000EBE7002504F11906F5E700BF6D4D000892
:1046C0007E4D0008B1F90C202DE9F0411607054692
:1046D0000C4651D44B68002B02DC0B6C002B49DDDF
:1046E000E66A002E46D0002312F480522F682B6019
:1046F00031D0626DA389590705D56368D21A636BFF
:104700000BB1236CD21A0023E66A216A2846B0470F
:10471000421CB4F90C3006D129681D2946D8294A13
:10472000CA40D60742D500226260D90422692260BD
:1047300004D5421C01D12B6803B96065616B2F6001
:10474000C1B104F14403994202D02846FFF7F2FBBD
:10475000002363630EE0216A01232846B047024626
:10476000501CC7D12B68002BC4D01D2B01D0162B99
:104770001AD12F6000201EE00F69002FFAD0930796
:104780000E6808BF4B690F6018BF0023A6EB07082F
:104790008B60B8F1000FEDDD216AA66A43463A4608
:1047A0002846B047002808DCB4F90C3043F0400339
:1047B000A3814FF0FF30BDE8F0810744A8EB00086B
:1047C000E7E700BF0100402038B50B6905460C46FD
:1047D00013B90025284638BD18B1036A0BB9FFF795
:1047E00045F9B4F90C30002BF3D0626ED00704D435
:1047F000990502D4A06DFFF78CFB28462146FFF7F0
:1048000061FF636EDA070546E4D4A3899B05E1D412
:10481000A06DFFF77FFBDDE770B50C46B1F90E1018
:10482000002996B015461E460ADAA18911F08001CA
:1048300013D14FF48062002031602A6016B070BD41
:104840006A4600F047F80028EFDB019901F4704157
:10485000A1F5005359425941EBE700214022EAE714
:104860008B8973B59E0705460C4607D504F14703AF
:10487000236023610123636102B070BD01AB6A460E
:10488000FFF7CAFF009E28463146FFF7BFFBB4F989
:104890000C3038B99A05EFD423F0030343F0020338
:1048A000A381E3E743F08003A381019B2060C4E977
:1048B0000406002BE0D0B4F90E10284600F01CF8D6
:1048C0000028D9D0A38923F0030343F00103A38177
:1048D000D2E7000038B5074D0023044608461146CC
:1048E0002B60FEF722F8431C02D12B6803B1236032
:1048F00038BD00BF484E002038B5064D00230446A1
:1049000008462B60FEF716F8431C02D12B6803B152
:10491000236038BD484E002038B5064D00230446BC
:1049200008462B60FEF70AF8431C02D12B6803B13E
:10493000236038BD484E00202DE9F047089D0F4602
:1049400004468C46002B48D18A42164661D9B2FAF9
:1049500082F34BB1C3F1200201FA03FC20FA02F208
:104960009E4042EA0C0C9C404FEA164EB7B2BCFB8C
:10497000FEF1220C0EFB11CC42EA0C4201FB07F0C7
:10498000904209D9B21801F1FF3C80F0EE809042CC
:1049900040F2EB8002393244121AA4B2B2FBFEF0AC
:1049A0000EFB102244EA024400FB07F7A74209D994
:1049B000341900F1FF3280F0DA80A74240F2D7804C
:1049C0003444023840EA0140E41B00211DB1DC40C0
:1049D0000023C5E90043BDE8F0878B4206D90DB13D
:1049E000C5E9000100210846BDE8F087B3FA83F16C
:1049F000002948D1BB4202D3824200F20781841AC7
:104A000067EB030201209446002DE4D0C5E9004C79
:104A1000E1E7002A00F09280B2FA82F3002B40F026
:104A2000A8808A1A4FEA164E1FFA86FC0121200C34
:104A3000B2FBFEF70EFB172240EA02420CFB07F026
:104A4000904207D9B21807F1FF3802D2904200F223
:104A5000E2804746121AA4B2B2FBFEF00EFB10220F
:104A600044EA02440CFB00FCA44507D9341900F1C8
:104A7000FF3202D2A44500F2CB801046A4EB0C0416
:104A800040EA0740A2E7C1F120068B4022FA06FC6B
:104A90004CEA030C07FA01F420FA06F3F7404FEA58
:104AA0001C49234300FA01F81FFA8CFEB7FBF9F00A
:104AB0001C0C09FB107744EA074400FB0EF7A742E1
:104AC00002FA01F20AD91CEB040400F1FF3A80F06B
:104AD0009B80A74240F2988002386444E41B9FB256
:104AE000B4FBF9F309FB134447EA044403FB0EFE4D
:104AF000A64509D91CEB040403F1FF3780F082803E
:104B0000A6457FD9023B644443EA0040A4EB0E046F
:104B1000A0FB02E7BC427346B94663D360D05DB1E7
:104B2000B8EB030264EB090404FA06F622FA01F377
:104B30001E43CC40C5E9006400214CE762084808E8
:104B400042EAC1710B0C43EA00438AB242EA0342D3
:104B5000B3FBF6F1E407B4463746B6461F23B0FB75
:104B6000F6F0D21B41EA004161E7614614E71046C6
:104B700028E7C3F1200120FA01F29E4027FA01F153
:104B80009F403A434FEA164E1FFA86FCB1FBFEF7F0
:104B90000EFB1710110C41EA004107FB0CF8884589
:104BA00004FA03F43AD9711807F1FF3001D28845AD
:104BB0001FD8A1EB0801B1FBFEF808FB0CF70EFBB8
:104BC000181192B242EA0142BA422FD2B21808F149
:104BD000FF31C6D2BA42C4D2A8F102013244C0E7C2
:104BE000F0459CD2BEEB020367EB0C070138B946D7
:104BF00095E7A6EB08084144B81EB1FBFEF808FB98
:104C00000CF7DCE73B467FE7504667E70846FBE6E4
:104C10003444023832E7023F32441BE7A1EB08017B
:104C20003846B1FBFEF808FB0CF7C8E7414698E7A9
:104C3000F8B500BFF8BC08BC9E467047F8B500BF89
:084C4000F8BC08BC9E46704759
:104C480072656365697665720000000073656E645D
:104C58006572000064656661756C745461736B00FD
:104C6800686F20726963657675746F20756E20258C
:104C7800660A000061692066696E69206469206EB1
:104C88006F6E20617665726520696E742061206F91
:104C98007074696D697A6564206F75742C20256459
:104CA8000A00000048454C4C4F204D4F544845528F
:104CB8004655434B4552000049444C45000000000E
:104CC800546D725100000000546D722053766300D9
:104CD800484C000800000000000000000000000030
:104CE800000000000002000030000000000000008A
:104CF80000000000544C0008000000000000000004
:104D08000000000000000000000200003000000069
:104D180000000000000000005C4C000800000000DB
:104D28000000000000000000000000000002000079
:104D38001800000000000000000000000000000053
:104D48000102030400000000000000000102030447
:104D580006070809232D302B2000686C4C00656677
:104D680067454647003031323334353637383941B4
:104D780042434445460030313233343536373839CA
:084D88006162636465660000CE
:084D900040B4FF7F01000000A8
:044D980041060008C8
:044D9C001D060008E8
:104DA000AAAAAAAA01000000100000000024F40032
:104DB00000000000030000000C4D00202000002037
:104DC000000000000C4D0020744D0020DC4D002040
:104DD00000000000000000000000000000000000D3
:104DE00000000000000000000000000000000000C3
:104DF00000000000000000000000000000000000B3
:0C4E0000000000000000000000000000A6
:04000005080038FDBA
:00000001FF
